S01400007363686564756C65725F4F532E7372656350
S11300000C942A000C9447000C9447000C9447006D
S11300100C9447000C9447000C9447000C94470040
S11300200C9447000C9447000C94DC030C94B50327
S11300300C9447000C9447000C9447000C94470020
S11300400C9447000C9447000C9447000C94470010
S11300500C94470011241FBECFE5D8E0DEBFCDBF0E
S113006010E0A0E6B0E0EAE0F8E002C005900D92EE
S1130070A036B107D9F710E0A0E6B0E001C01D92A8
S1130080A937B107E1F70E94BF020C9403040C9452
S11300900000813031F1813038F0823009F43EC003
S11300A0833009F074C057C0413069F42AB381E049
S11300B090E0AC0102C0440F551F6A95E2F7BA0103
S11300C0622B6ABB08952AB381E090E0AC0102C0C0
S11300D0440F551F6A95E2F7BA01609562236ABB23
S11300E00895413069F427B381E090E0AC0102C087
S11300F0440F551F6A95E2F7BA01622B67BB089556
S113010027B381E090E0AC0102C0440F551F6A950B
S1130110E2F7BA016095622367BB0895413069F440
S113012024B381E090E0AC0102C0440F551F6A95EE
S1130130E2F7BA01622B64BB089524B381E090E036
S1130140AC0102C0440F551F6A95E2F7BA016095ED
S1130150622364BB0895413069F421B381E090E0E7
S1130160AC0102C0440F551F6A95E2F7BA01622B35
S113017061BB089521B381E090E0AC0102C0440F5B
S1130180551F6A95E2F7BA016095622361BB089531
S1130190813049F0813028F0823039F0833041F4E5
S11301A006C06ABB089567BB089564BB089561BB2C
S11301B00895813049F0813028F0823039F083305D
S11301C041F406C06BBB089568BB089565BB0895F0
S11301D062BB0895813031F1813038F0823009F406
S11301E03EC0833009F074C057C0442371F42BB36C
S11301F081E090E0AC0102C0440F551F6A95E2F71C
S1130200BA01609562236BBB08952BB381E090E043
S1130210AC0102C0440F551F6A95E2F7BA01622B84
S11302206BBB0895442371F428B381E090E0AC01E2
S113023002C0440F551F6A95E2F7BA016095622324
S113024068BB089528B381E090E0AC0102C0440F7C
S1130250551F6A95E2F7BA01622B68BB08954423DF
S113026071F425B381E090E0AC0102C0440F551F46
S11302706A95E2F7BA016095622365BB089525B3D8
S113028081E090E0AC0102C0440F551F6A95E2F78B
S1130290BA01622B65BB0895442371F422B381E053
S11302A090E0AC0102C0440F551F6A95E2F7BA0111
S11302B06095622362BB089522B381E090E0AC01B3
S11302C002C0440F551F6A95E2F7BA01622B62BB64
S11302D008958130C1F0813030F0823019F18330DB
S11302E009F03EC02EC08BB3942F909589238BBB0D
S11302F070E0CB0102C0880F991F2A95E2F79C0198
S113030024232BBB089588B3942F9095892388BB0D
S113031070E0FB0102C0EE0FFF1F2A95E2F7E42311
S1130320E8BB089585B3942F9095892385BB70E02D
S1130330CB0102C0880F991F2A95E2F7842385BB5D
S1130340089582B3942F9095892382BB70E0CB01EA
S113035002C0880F991F2A95E2F79C01242322BB2F
S11303600895682370E0CB0102C0959587954A955E
S1130370E2F708958130A1F0813028F08230E9F06D
S11303808330A1F527C02BB381E090E0AC0102C01B
S1130390440F551F6A95E2F7BA0162276BBB0895B3
S11303A028B381E090E0AC0102C0440F551F6A9568
S11303B0E2F7BA01622768BB089525B381E090E0B3
S11303C0AC0102C0440F551F6A95E2F7BA016227D7
S11303D065BB089522B381E090E0AC0102C0440FF4
S11303E0551F6A95E2F7BA01622762BB089581300E
S11303F089F0813028F08230B9F0833049F51EC08D
S113040029B330E0C90102C0959587956A95E2F752
S11304108170089526B330E0C90102C0959587958F
S11304206A95E2F78170089523B330E0C90102C0F0
S1130430959587956A95E2F78170089520B330E029
S1130440C90102C0959587956A95E2F78170089570
S113045080E008958130F9F0813030F0823091F1FC
S1130460833009F05CC045C08AB390E0062E02C018
S1130470959587950A94E2F780FD51C02BB381E0EE
S113048090E0AC0102C0440F551F6A95E2F7BA012F
S1130490622B6BBB089587B390E0062E02C095953E
S11304A087950A94E2F780FD3AC028B381E090E092
S11304B0AC0102C0440F551F6A95E2F7BA01622BE2
S11304C068BB089584B390E0062E02C09595879585
S11304D00A94E2F780FD23C025B381E090E0AC01EB
S11304E002C0440F551F6A95E2F7BA01622B65BB3F
S11304F0089581B390E0062E02C0959587950A94DD
S1130500E2F780FD0CC022B381E090E0AC0102C0B0
S1130510440F551F6A95E2F7BA01622B62BB089536
S11305208FB780688FBF08958FB78F778FBF089577
S113053080E062E00E94BA018FEF91EEA4E0815066
S11305409040A040E1F700C00000089580E061E021
S11305500E94BA018FEF90E7A2E081509040A04042
S1130560E1F700C00000089580E061E041E00E94EE
S1130570490080E062E041E00E94490008950E9441
S1130580B40281E061E070E040E050E026EA32E04D
S11305900E941C0382E062E070E041E050E028E940
S11305A032E00E941C030E940E03FFCFCF92DF9221
S11305B0EF92FF920F931F93CF93DF9306E610E021
S11305C0E80126970F2EFFE0EF2EFF24F02DE00E1A
S11305D0F11EF8018081882391F48A819B81009720
S11305E059F4EC81FD81309751F009958881998106
S11305F001979B838A8303C001979B838A83095F46
S11306001F4F2796CE15DF0521F7DF91CF911F915C
S11306100F91FF90EF90DF90CF9008950E947303A5
S11306208AEF0E9499030E94900286ED92E00E9454
S1130630B0030E94A3030895DB01BA01A901282F86
S113064030E0F901EE0FFF1FEE0FFF1FEE0FFF1F4B
S1130650E21BF30BE05AFF4F848195810097A9F4C4
S1130660C901880F991F880F991F880F991F821B32
S1130670930BFC01E05AFF4FB183A0837383628321
S113068055834483168281E0089580E0089590E0C4
S1130690FC01EE0FFF1FEE0FFF1FEE0FFF1FE81B05
S11306A0F90BE05AFF4F1682089590E0FC01EE0F1B
S11306B0FF1FEE0FFF1FEE0FFF1FE81BF90BE05AA1
S11306C0FF4F81E08683089590E0FC01EE0FFF1F49
S11306D0EE0FFF1FEE0FFF1FE81BF90BE05AFF4F51
S11306E015821482089583B78F7B83BF83B7886094
S11306F083BF83B7816083BF83B7826083BF83B7BF
S11307008B7F83BF83B78F7E83BF83B78F7D83BF88
S113071089B78E7F89BF89B78D7F89BF88B781608C
S113072088BF88B7826088BF12BE1CBE089582BF8E
S113073008958CBF089589B7816089BF089589B7EA
S11307408E7F89BF089589B7826089BF089589B76C
S11307508D7F89BF089590937800809377000895E2
S1130760909376008093750008951F920F920FB6B0
S11307700F9211242F933F934F935F936F937F9323
S11307808F939F93AF93BF93EF93FF93E091770081
S1130790F09178000995FF91EF91BF91AF919F91EE
S11307A08F917F916F915F914F913F912F910F9016
S11307B00FBE0F901F9018951F920F920FB60F92B5
S11307C011242F933F934F935F936F937F938F9352
S11307D09F93AF93BF93EF93FF93E0917500F091D4
S11307E076000995FF91EF91BF91AF919F918F9101
S11307F07F916F915F914F913F912F910F900FBE19
S10D08000F901F901895F894FFCF95
S9030000FC
